:100000000C9472000C94AD000C9486000C94860045
:100010000C9486000C9486000C9486000C94860048
:100020000C9486000C9486000C9486000C94860038
:100030000C9486000C9486000C9486000C94860028
:100040000C9486000C9486000C9486000C94860018
:100050000C9486000C9486000C9486000C94860008
:100060000C9486000C9495000C9486000C948600E9
:100070000C9486000C9486000C9486000C948600E8
:100080000C9486000C9486000C9486000C948600D8
:100090000C9486000C9486000C9486000C948600C8
:1000A0000C9486000C9486000C9486000C948600B8
:1000B0000C9486000C9486000C9486000C948600A8
:1000C0000C9486000C9486000C9486000C94860098
:1000D0000C9486000C9486000C9486000C94860088
:1000E0000C94860011241FBECFEFD1E2DEBFCDBF3E
:1000F00000E00CBF22E0A0E0B2E001C01D92A13000
:10010000B207E1F70E94BE000C94E3000C940000DB
:10011000E1ECF0E0808180688083E9E6F0E08081B6
:1001200082608083E89A789408951F920F920FB6A8
:100130000F9211240BB60F928F93EF93FF93E6EC7F
:10014000F0E080818083FF91EF918F910F900BBE43
:100150000F900FBE0F901F9018951F920F920FB621
:100160000F9211248F93809100028F5F8093000281
:100170008F910F900FBE0F901F9018958091C10026
:1001800080618093C1008091C10088608093C1002C
:100190008091C200877F8093C2008091C2008360FB
:1001A0008093C20087E690E09093C5008093C400DE
:1001B0000E9488009FB7F894809100028F5F80931F
:0A01C00000029FBFF7CFF894FFCFB5
:00000001FF
