:100000000C9472000C947E000C947E000C947E0084
:100010000C947E000C947E000C947E000C947E0068
:100020000C947E000C947E000C947E000C947E0058
:100030000C947E000C947E000C947E000C947E0048
:100040000C947E000C9480000C947E000C947E0036
:100050000C947E000C947E000C947E000C947E0028
:100060000C947E000C947E000C947E000C947E0018
:100070000C947E000C947E000C947E000C947E0008
:100080000C947E000C947E000C947E000C947E00F8
:100090000C947E000C947E000C947E000C947E00E8
:1000A0000C947E000C947E000C947E000C947E00D8
:1000B0000C947E000C947E000C947E000C947E00C8
:1000C0000C947E000C947E000C947E000C947E00B8
:1000D0000C947E000C947E000C947E000C947E00A8
:1000E0000C947E0011241FBECFEFD1E2DEBFCDBF46
:1000F00000E00CBF0E948F000C94A8000C9400003C
:100100001F920F920FB60F9211248F9385B18058D2
:1001100085B98F910F900FBE0F901F901895279A59
:10012000809181008860809381008091810081604E
:100130008093810080916F00826080936F008FEFC9
:1001400099EF90938900809388002F9A7894FFCF3D
:04015000F894FFCF51
:00000001FF
