:100000000C9472000C948B000C948B000C948B005D
:100010000C948B000C948B000C948B000C948B0034
:100020000C948B000C948B000C948B000C948B0024
:100030000C948B000C948B000C948B000C948B0014
:100040000C948B000C948B000C948B000C948B0004
:100050000C948B000C948B000C948B000C948B00F4
:100060000C948B000C948B000C948B000C948B00E4
:100070000C948B000C948B000C948B000C948B00D4
:100080000C948B000C948B000C948B000C948B00C4
:100090000C948B000C948B000C948B000C948B00B4
:1000A0000C948B000C948B000C948B000C948B00A4
:1000B0000C948B000C948B000C948B000C948B0094
:1000C0000C948B000C948B000C948B000C948B0084
:1000D0000C948B000C948B000C948B000C948B0074
:1000E0000C948B0011241FBECFEFD1E2DEBFCDBF39
:1000F00000E00CBF12E0A0E0B2E0EEECF1E000E0C6
:100100000BBF02C007900D92A630B107D9F70E942D
:100110008D000C94E5000C940000CF93DF9300D089
:100120001F921F92CDB7DEB7279A2F9A85E0E0E0A5
:10013000F2E0DE01119601900D928A95E1F7BE0181
:100140006A5F7F4FFE013196219190E080E030E0C0
:10015000A901082E02C0559547950A94E2F740FF81
:1001600022C044E02F98AFECB7E01197F1F700C040
:1001700000002F9AAFECB7E01197F1F700C0000034
:10018000415081F701968830910511F76E177F076E
:10019000D9F6BFEF21EE84E0B15020408040E1F776
:1001A00000C00000CFCF48E02F98A7EEB3E0119732
:1001B000F1F700C000002F9AA7EEB3E01197F1F716
:0E01C00000C00000415081F7DDCFF894FFCF62
:0601CE00ADFF1245DA004E
:00000001FF
