:100000000C9472000C947E000C947E000C947E0084
:100010000C947E000C947E000C947E000C947E0068
:100020000C947E000C947E000C947E000C947E0058
:100030000C947E000C947E000C947E000C947E0048
:100040000C947E000C947E000C947E000C947E0038
:100050000C947E000C947E000C947E000C947E0028
:100060000C947E000C947E000C947E000C947E0018
:100070000C947E000C947E000C947E000C947E0008
:100080000C947E000C947E000C947E000C947E00F8
:100090000C947E000C947E000C947E000C947E00E8
:1000A0000C947E000C947E000C947E000C947E00D8
:1000B0000C947E000C947E000C947E000C947E00C8
:1000C0000C947E000C947E000C947E000C947E00B8
:1000D0000C947E000C947E000C947E000C947E00A8
:1000E0000C947E0011241FBECFEFD1E2DEBFCDBF46
:1000F00000E00CBF0E9480000C94C0000C94000033
:10010000279A2F9A4DEA50E090E080E09A01082E5D
:1001100002C0359527950A94E2F720FF1FC024E01E
:100120002F98EFECF7E03197F1F700C000002F9A1D
:10013000EFECF7E03197F1F700C00000215081F7B4
:1001400001968830910511F7FFEF21EE84E0F15020
:1001500020408040E1F700C00000D6CF28E02F9873
:10016000E7EEF3E03197F1F700C000002F9AE7EED9
:10017000F3E03197F1F700C00000215081F7E0CFA4
:04018000F894FFCF21
:00000001FF
