:100000000C9434000C943E000C943E000C943E0082
:100010000C943E000C943E000C943E000C943E0068
:100020000C943E000C943E000C943E000C943E0058
:100030000C943E000C943E000C943E000C943E0048
:100040000C943E000C943E000C943E000C943E0038
:100050000C943E000C943E000C943E000C943E0028
:100060000C943E000C943E0011241FBECFEFD8E04C
:10007000DEBFCDBF0E9469000C948C000C94000080
:10008000289A84E02D98EFECF7E03197F1F700C063
:1000900000002D9AEFECF7E03197F1F700C0000077
:1000A000815081F7089581110C944000289888E0D0
:1000B0002D98E7EEF3E03197F1F700C000002D9A9C
:1000C000E7EEF3E03197F1F700C00000815081F7CF
:1000D0000895259A209A2D9A289805E410E080E04A
:1000E0000E945300C8E0D0E0C8010C2E02C09595D4
:1000F00087950A94E2F781700E9453002197A1F737
:100100000E9440008FEF99E628E181509040204006
:0C011000E1F700C00000E3CFF894FFCF3F
:00000001FF
